:0400000093EF00F08A
:0E0008004182FACFB6F0FBCFB7F0A8ED01F0C1
:100018004180D8CF11F0E8CF12F0E0CF13F0FACF3B
:1000280014F0FBCF15F0E9CF16F0EACF17F0E1CFC7
:1000380018F0E2CF19F0D9CF1AF0DACF1BF0F3CFCE
:100048001CF0F4CF1DF0F6CF1EF0F7CF1FF0F8CF5D
:1000580020F0F5CF21F09EA03ED09E900B0ECF6EE3
:10006800DC0ECE6E244A252A190E24182510D8A491
:1000780032D0000E256E000E246EA3EC12F084B26E
:1000880021D08D90CA949E92000ECC6ECA849EA2F6
:10009800FED78D80000E0101B06F000EAF6FE80E25
:1000A8000101AF5D030E0101B059D8B00BD0CA945D
:1000B8009E92000ECC6ECA849EA2FED70101AF4B61
:1000C800B02BEDD73E50D8B403D071EC08F002D075
:1000D800E0EC0BF0040021C0F5FF20C0F8FF1FC0C2
:1000E800F7FF1EC0F6FF1DC0F4FF1CC0F3FF1BC0C6
:1000F800DAFF1AC0D9FF19C0E2FF18C0E1FF17C024
:10010800EAFF16C0E9FF15C0FBFF14C0FAFF13C0D1
:10011800E0FF12C0E8FF11C0D8FF419010003BEF8C
:0201280016F0CF
:1003000000426F6F74696E67202E2E2E2E2E2E2EB9
:100310002E00426F6F74696E67202E2E2E2E0042C3
:100320006F6F74696E67202E2E00426F6F74696E56
:100330006720004E6F2044617461002057696E642D
:100340003D006D2F732C0052483D00543D000000CD
:100350000600E9CFB8F0EACFB9F0E1CFBAF0E2CFCA
:10036000BBF0D9CFBCF0DACFBDF0F3CFBEF0F4CF05
:10037000BFF0F6CFC0F0F7CFC1F0F8CFC2F0F5CFA5
:10038000C3F0F2A446EF08F08280F2940B0ED76E11
:10039000DC0ED66EC20ED76EF70ED66E000EC46E91
:1003A000000EC36EC282C2B2FED7C4CFE3F000011A
:1003B000E46B0001E351E46FE36BC3500001E327FA
:1003C000000EE423060E0001B26FD8900001E43362
:1003D000E3330001B22FF9D7660E00016E6F560E9F
:1003E00000016F6F400E0001706FE3C068F0E4C061
:1003F00069F001EC18F068C06BF069C06CF06AC07D
:100400006DF014EC0FF06BC07AF06CC07BF06DC037
:100410007CF0C00E00017D6F7F0E00017E6F440EE8
:1004200000017F6FC3EC0FF07AC0CEF07BC0CFF03D
:100430007CC0D0F0CEC060F0CFC061F0D0C062F020
:10044000CD0E0001636F4C0E0001646F3E0E000183
:10045000656F78EC13F00001D8A00DD00001DD51DC
:10046000020D7D0EF324D96E010EF420DA6E5A0EC1
:10047000DE6E000EDD6ECEC060F0CFC061F0D0C089
:1004800062F0000E0001636F000E0001646F3F0E0A
:100490000001656F78EC13F00001D8A00DD00001C9
:1004A000DD51020D7D0EF324D96E010EF420DA6EBB
:1004B000870EDE6E000EDD6ECEC060F0CFC061F044
:1004C000D0C062F0660E0001636F660E0001646FBB
:1004D0003F0E0001656F78EC13F00001D8A00DD03D
:1004E0000001DD51020D7D0EF324D96E010EF420C2
:1004F000DA6EB40EDE6E000EDD6ECEC060F0CFC0E0
:1005000061F0D0C062F0330E0001636FB30E0001E2
:10051000646F3F0E0001656F78EC13F00001D8A006
:100520000DD00001DD51020D7D0EF324D96E010EB8
:10053000F420DA6E2D0EDE6E000EDD6ECEC060F0A1
:10054000CFC061F0D0C062F0000E0001636F000EFA
:100550000001646F400E0001656F78EC13F000013C
:10056000D8A00DD00001DD51020D7D0EF324D96E0F
:10057000010EF420DA6EE10EDE6E000EDD6ECEC0EE
:1005800060F0CFC061F0D0C062F0000E0001636F78
:10059000200E0001646F400E0001656F78EC13F0CF
:1005A0000001D8A00DD00001DD51020D7D0EF32415
:1005B000D96E010EF420DA6E000EDE6E000EDD6ED6
:1005C000CEC060F0CFC061F0D0C062F0330E000149
:1005D000636F330E0001646F400E0001656F78ECAD
:1005E00013F00001D8A00DD00001DD51020D7D0EE9
:1005F000F324D96E010EF420DA6E3B0EDE6E010E8E
:10060000DD6ECEC060F0CFC061F0D0C062F0000EF1
:100610000001636F400E0001646F400E0001656FC2
:1006200078EC13F00001D8A00DD00001DD51020DCF
:100630007D0EF324D96E010EF420DA6E0E0EDE6EFE
:10064000010EDD6ECEC060F0CFC061F0D0C062F0B0
:10065000000E0001636F500E0001646F400E000138
:10066000656F78EC13F00001D8B014D0CEC060F004
:10067000CFC061F0D0C062F0CD0E0001636F4C0EB0
:100680000001646F3E0E0001656F78EC13F000010D
:10069000D8B03ED00001DD51D8B42DD0FE0E0001FF
:1006A000B26FFF0E0001B36F0001DD510001B46FA6
:1006B000B56BD8900001B437B5370001B2510001D5
:1006C000B4270001B3510001B5237D0E0001B4250C
:1006D000D96E010E0001B521DA6E0001DD51020D67
:1006E0007D0EF324E16E010EF420E26EDECFE6FF14
:1006F000DDCFE5FF0DD00001DD51020D7D0EF324AD
:10070000D96E010EF420DA6E8FC1DEFF90C1DDFFDD
:1007100029EC12F00001DC6F040082903CC0D5F09F
:100720000001D66B0001D551D66FD56B3D5000014D
:10073000D527000ED6230001D890D633D53300013B
:10074000D890D633D533D5C0B2F0D6C0B3F0050EAD
:100750000001B46F0001D890B333B2330001B42F5D
:10076000F9D7CE0E0001B2250001686FFF0E00011F
:10077000B3210001696F01EC18F00001DD51030D98
:10078000000EF324D96E010EF420DA6E68C0DEFF8D
:1007900069C0DEFF6AC0DEFF3AC0D3F00001D46B4F
:1007A0000001D351D46FD36B3B500001D327000E0F
:1007B000D4230001D33BD43B0F0ED317D451F00BFD
:1007C000D3130F0ED417000E00018C6FC00E000162
:1007D0008D6FC10E00018E6F000E00017D6F800EC7
:1007E00000017E6F410E00017F6FD3C068F0D4C05E
:1007F00069F001EC18F068C07AF069C07BF06AC05B
:100800007CF0C3EC0FF07AC089F07BC08AF07CC02A
:100810008BF0ACEC0AF089C095F08AC096F08BC0E2
:1008200097F069EC10F00001DD51020D4B0EF3243E
:10083000D96E010EF420DA6E000195C0DEFF0001D2
:1008400096C0DDFF0001DD51020D7D0EF324D96E4F
:10085000010EF420DA6EDECFD9F0DDCFDAF0000140
:10086000DD51030D000EF324D96E010EF420DA6E73
:10087000DECFCBF0DECFCCF0DDCFCDF00001DD510F
:10088000020D4B0EF324D96E010EF420DA6EDECF8A
:10089000D1F0DDCFD2F00001DD2B0A0E0001DD1911
:1008A000D8A4F4D3000E0001DD6F000E0001E46F48
:1008B000000EE36F000E0001EB6F000E0001EC6F05
:1008C000000E0001ED6F000E0001E86F000E000148
:1008D000E96F000E0001EA6F000E0001C76F090EFC
:1008E0000001C76501D052D00001C751020D7D0E35
:1008F000F324D96E010EF420DA6EDE500001E327F6
:10090000DD500001E423EBC089F0ECC08AF0EDC0BB
:100910008BF00001C751030D000EF324D96E010EB8
:10092000F420DA6EDECF8CF0DECF8DF0DDCF8EF0EE
:10093000ACEC0AF089C0EBF08AC0ECF08BC0EDF0B3
:10094000E8C089F0E9C08AF0EAC08BF00001C75125
:10095000020D4B0EF324D96E010EF420DA6EDECFB9
:1009600068F0DDCF69F001EC18F068C08CF069C068
:100970008DF06AC08EF0ACEC0AF089C0E8F08AC055
:10098000E9F08BC0EAF00001C72BA9D7CD0E00011A
:100990006E6FCC0E00016F6F3D0E0001706FE3C0F3
:1009A00068F0E4C069F001EC18F068C06BF069C051
:1009B0006CF06AC06DF014EC0FF06BC095F06CC079
:1009C00096F06DC097F069EC10F095C0D7F096C026
:1009D000D8F08FC1D7F090C1D8F0EBC06BF0ECC06D
:1009E0006CF0EDC06DF0CD0E00016E6FCC0E00010D
:1009F0006F6F3D0E0001706F14EC0FF06BC0EBF0E9
:100A00006CC0ECF06DC0EDF0E8C06BF0E9C06CF0CC
:100A1000EAC06DF0CD0E00016E6FCC0E00016F6F5D
:100A20003D0E0001706F14EC0FF06BC0E8F06CC06D
:100A3000E9F06DC0EAF0000E00017D6FA00E00012C
:100A40007E6F400E00017F6F000E00018C6FC80E9C
:100A500000018D6F420E00018E6FE8C060F0E9C0AA
:100A600061F0EAC062F0E9EC17F060C089F061C0A3
:100A70008AF062C08BF0ACEC0AF089C07AF08AC0D0
:100A80007BF08BC07CF0C3EC0FF07AC0C4F07BC06D
:100A9000C5F07CC0C6F0C4C060F0C5C061F0C6C07F
:100AA00062F0E9EC17F060C089F061C08AF062C0C2
:100AB0008BF0EBC08CF0ECC08DF0EDC08EF0ACECA8
:100AC0000AF089C0C8F08AC0C9F08BC0CAF0000122
:100AD000DC51D8B422D0050E0001DC6108D0450EEF
:100AE0002E6E720E306E0001DC51300F2F6E050E2F
:100AF0000001DC6508D0450E2A6E720E2C6E0001D6
:100B0000DC51300F2B6E8284CA949E92000ECC6E04
:100B1000CA849EA2FED7829483D1EBC095F0ECC02C
:100B200096F0EDC097F069EC10F095C0A4F096C077
:100B3000A5F0000E0001A76F640EA66F3BEC14F049
:100B40000001A451300F2E6E000E0001A76F0A0E97
:100B5000A66FEBC095F0ECC096F0EDC097F069EC95
:100B600010F095C0A4F096C0A5F03BEC14F0A4C022
:100B7000ACF0A5C0ADF0000E0001AF6F0A0EAE6F75
:100B80009AEC14F00001AC51300F306EEBC095F0D0
:100B9000ECC096F0EDC097F069EC10F095C0ACF0A9
:100BA00096C0ADF0000E0001AF6F0A0EAE6F9AEC6A
:100BB00014F00001AC51300F2F6E000E00016E6F6B
:100BC000200E00016F6F410E0001706FEBC06BF0E3
:100BD000ECC06CF0EDC06DF014EC0FF06BC095F054
:100BE0006CC096F06DC097F069EC10F095C0ACF059
:100BF00096C0ADF0000E0001AF6F0A0EAE6F9AEC1A
:100C000014F00001AC51300F2D6E0001EDBF02D089
:100C10002B0E01D02D0E316EE8C089F0E9C08AF0AC
:100C2000EAC08BF0000E00018C6FE00E00018D6FAA
:100C3000C00E00018E6FACEC0AF089C0E8F08AC0EB
:100C4000E9F08BC0EAF0000E0001606FC80E0001F1
:100C5000616F420E0001626FE8C063F0E9C064F0AA
:100C6000EAC065F078EC13F00001D8B009D0000EAE
:100C70000001E86FC80E0001E96F420E0001EA6F43
:100C8000E8C095F0E9C096F0EAC097F069EC10F082
:100C900095C0A4F096C0A5F0000E0001A76F640EE9
:100CA000A66F3BEC14F00001A451300F2A6E000E29
:100CB0000001A76F0A0EA66FE8C095F0E9C096F094
:100CC000EAC097F069EC10F095C0A4F096C0A5F0CA
:100CD0003BEC14F0A4C0ACF0A5C0ADF0000E0001D8
:100CE000AF6F0A0EAE6F9AEC14F00001AC51300FEA
:100CF0002C6EE8C095F0E9C096F0EAC097F069EC78
:100D000010F095C0ACF096C0ADF0000E0001AF6FD2
:100D10000A0EAE6F9AEC14F00001AC51300F2B6E3E
:100D2000C8C095F0C9C096F0CAC097F069EC10F041
:100D300095C0A4F096C0A5F0000E0001A76F640E48
:100D4000A66F3BEC14F00001A451300F0001DB6FE3
:100D5000000E0001A76F0A0EA66FC8C095F0C9C0AB
:100D600096F0CAC097F069EC10F095C0A4F096C058
:100D7000A5F03BEC14F0A4C0ACF0A5C0ADF0000EA3
:100D80000001AF6F0A0EAE6F9AEC14F00001AC5187
:100D9000300F286EC8C095F0C9C096F0CAC097F051
:100DA00069EC10F095C0ACF096C0ADF0000E0001FB
:100DB000AF6F0A0EAE6F9AEC14F00001AC51300F19
:100DC000276E000E00016E6F200E00016F6F410E46
:100DD0000001706FC8C06BF0C9C06CF0CAC06DF084
:100DE00014EC0FF06BC095F06CC096F06DC097F0EE
:100DF00069EC10F095C0ACF096C0ADF0000E0001AB
:100E0000AF6F0A0EAE6F9AEC14F00001AC51300FC8
:100E1000266E0001CABF02D02B0E01D02D0E296E06
:100E2000D7C060F0D8C061F0000E0001636F640E9F
:100E3000626F6CEC15F000016051300F336E000EE4
:100E40000001636F0A0E626FD7C060F0D8C061F016
:100E50006CEC15F060C067F061C068F0000E000136
:100E60006A6F0A0E696FDBEC15F000016751300FF5
:100E7000356ED7C067F0D8C068F0000E00016A6F09
:100E80000A0E696FDBEC15F000016751300F346E0C
:100E9000E1C068F0E2C069F001EC18F068C06BF0E6
:100EA00069C06CF06AC06DF0850E00016E6F2B0E8C
:100EB00000016F6F3F0E0001706F14EC0FF06BC0FC
:100EC000E5F06CC0E6F06DC0E7F0000E0001E26FE7
:100ED000000EE16F0E0E00016E6F8F0E00016F6F3E
:100EE0003E0E0001706FDFC068F0E0C069F001ECF9
:100EF00018F068C06BF069C06CF06AC06DF014EC5B
:100F00000FF06BC095F06CC096F06DC097F069EC77
:100F100010F0000195510001DE6F000E0001E06F3E
:100F2000000EDF6F000E0001A76F0A0EA66FE5C06E
:100F300095F0E6C096F0E7C097F069EC10F095C028
:100F4000A4F096C0A5F03BEC14F0A4C0ACF0A5C092
:100F5000ADF0000E0001AF6F0A0EAE6F9AEC14F008
:100F60000001AC51300F376EE5C095F0E6C096F049
:100F7000E7C097F069EC10F095C0ACF096C0ADF00A
:100F8000000E0001AF6F0A0EAE6F9AEC14F0000174
:100F9000AC51300F386E000E00016E6F200E000154
:100FA0006F6F410E0001706FE5C06BF0E6C06CF032
:100FB000E7C06DF014EC0FF06BC095F06CC096F0CC
:100FC0006DC097F069EC10F095C0ACF096C0ADF034
:100FD000000E0001AF6F0A0EAE6F9AEC14F0000124
:100FE000AC51300F366E0001D7510001D811D8A492
:100FF00004D0200E3F6E4E0E09D02D0E0001D719E1
:101000000001D811D8A404D04E0E13D0406E3ED0AB
:101010005A0E0001D7190001D811D8A402D0200E11
:1010200008D0870E0001D7190001D811D8A404D028
:10103000530E3F6E450EEAD7B40E0001D7190001DA
:10104000D811D8A404D0200E3F6E530EDFD7E10E86
:101050000001D7190001D811D8A402D0530E13D023
:101060000E0E0001D71906E10001D805D8A402D060
:10107000200E09D03B0E0001D71908E10001D80568
:10108000D8A404D04E0E3F6E570EC0D7F2A204D0A3
:10109000F2920001E14BE22BF0A004D0F0900001AD
:1010A000DF4BE02B0400C3C0F5FFC2C0F8FFC1C096
:1010B000F7FFC0C0F6FFBFC0F4FFBEC0F3FFBDC066
:1010C000DAFFBCC0D9FFBBC0E2FFBAC0E1FFB9C0C4
:1010D000EAFFB8C0E9FFB7C0FBFFB6C0FAFF419214
:1010E0001100000E236E000E226E240E326E32C0EE
:1010F000ADFFACA2FED732502226000E2322300EC6
:10110000326E32C0ADFFACA2FED732502226000EA6
:101110002322310E326E32C0ADFFACA2FED7325068
:101120002226000E23222C0E326E32C0ADFFACA25E
:10113000FED732502226000E2322300E326E32C0ED
:10114000ADFFACA2FED732502226000E2322300E75
:10115000326E32C0ADFFACA2FED732502226000E56
:101160002322300E326E32C0ADFFACA2FED7325019
:101170002226000E2322300E326E32C0ADFFACA20A
:10118000FED732502226000E2322300E326E32C09D
:10119000ADFFACA2FED732502226000E2322300E25
:1011A000326E32C0ADFFACA2FED732502226000E06
:1011B00023222C0E326E32C0ADFFACA2FED73250CD
:1011C0002226000E2322300E326E32C0ADFFACA2BA
:1011D000FED732502226000E2322300E326E32C04D
:1011E000ADFFACA2FED732502226000E2322300ED5
:1011F000326E32C0ADFFACA2FED732502226000EB6
:101200002322300E326E32C0ADFFACA2FED7325078
:101210002226000E2322300E326E32C0ADFFACA269
:10122000FED732502226000E2322300E326E32C0FC
:10123000ADFFACA2FED732502226000E23222C0E88
:10124000326E32C0ADFFACA2FED732502226000E65
:10125000232231C032F032C0ADFFACA2FED73250F3
:101260002226000E232230C032F032C0ADFFACA2E5
:10127000FED732502226000E23222FC032F032C079
:10128000ADFFACA2FED732502226000E23222E0E36
:10129000326E32C0ADFFACA2FED732502226000E15
:1012A00023222DC032F032C0ADFFACA2FED73250A7
:1012B0002226000E23222C0E326E32C0ADFFACA2CD
:1012C000FED732502226000E23222AC032F032C02E
:1012D000ADFFACA2FED732502226000E23222CC036
:1012E00032F032C0ADFFACA2FED732502226000E43
:1012F00023222BC032F032C0ADFFACA2FED7325059
:101300002226000E23222C0E326E32C0ADFFACA27C
:10131000FED732502226000E2322300E326E32C00B
:10132000ADFFACA2FED732502226000E2322300E93
:10133000326E32C0ADFFACA2FED732502226000E74
:101340002322300E326E32C0ADFFACA2FED7325037
:101350002226000E2322300E326E32C0ADFFACA228
:10136000FED732502226000E23222E0E326E32C0BD
:10137000ADFFACA2FED732502226000E2322300E43
:10138000326E32C0ADFFACA2FED732502226000E24
:1013900023222C0E326E32C0ADFFACA2FED73250EB
:1013A0002226000E232237C032F032C0ADFFACA29D
:1013B000FED732502226000E232238C032F032C02F
:1013C000ADFFACA2FED732502226000E23222E0EF5
:1013D000326E32C0ADFFACA2FED732502226000ED4
:1013E000232236C032F032C0ADFFACA2FED732505D
:1013F0002226000E23222C0E326E32C0ADFFACA28C
:10140000FED732502226000E232233C032F032C0E3
:10141000ADFFACA2FED732502226000E232235C0EB
:1014200032F032C0ADFFACA2FED732502226000E01
:10143000232234C032F032C0ADFFACA2FED732500E
:101440002226000E23222C0E326E32C0ADFFACA23B
:10145000FED732502226000E232229C032F032C09D
:10146000ADFFACA2FED732502226000E232228C0A8
:1014700032F032C0ADFFACA2FED732502226000EB1
:10148000232227C032F032C0ADFFACA2FED73250CB
:101490002226000E23222E0E326E32C0ADFFACA2E9
:1014A000FED732502226000E232226C032F032C050
:1014B000ADFFACA2FED732502226000E23222C0E06
:1014C000326E32C0ADFFACA2FED732502226000EE3
:1014D00023222250226E236A22C001F023C002F090
:1014E000000E046E640E036E8EEC16F00150300F89
:1014F000AD6EACA2FED7000E046E0A0E036E22C0C3
:1015000001F023C002F08EEC16F001C008F002C01A
:1015100009F0000E0B6E0A0E0A6E25EC17F008504B
:10152000300FAD6EACA2FED722C008F023C009F088
:10153000000E0B6E0A0E0A6E25EC17F00850300FE5
:10154000AD6EACA2FED70D0EAD6EACA2FED70A0EEC
:10155000AD6EACB21200FDD78BC08FF00001906B66
:10156000916B00018A3500018F3701E39081000102
:101570008F510001946F8EC08FF00001906B916BC2
:1015800000018D3500018F3701E3908100018F51FB
:101590000001936F000194510001D8B411D00001F3
:1015A00093510001945DD8B012D00001945100080D
:1015B0000001932500018F6F180E00018F6507D081
:1015C0008CC089F08DC08AF08EC08BF012000001B3
:1015D00093510001D8B411D0000194510001935DE2
:1015E000D8B012D0000193510008000194250001E9
:1015F0008F6F180E00018F6507D089C089F08AC0EF
:101600008AF08BC08BF01200060E0001926F000171
:101610008BAF02D00001928F00018EAF02D000018B
:10162000928D00018A8FFF0E00018917FF0E0001C5
:101630008A17000E00018B1700018D8FFF0E00012D
:101640008C17FF0E00018D17000E00018E17000190
:1016500093510001945DD8B025D00001D8908C370B
:101660008D378E37000193070001945100019319C3
:10167000D8B411D00001920792C08FF0070E00017C
:101680008F17D8B408D0E9D70001D8908B338A33AC
:1016900089330001942B0001935100019419D8B4AF
:1016A0002BD0F2D7000194510001935DD8B024D023
:1016B0000001D89089378A378B37000194070001E1
:1016C000945100019319D8B411D00001920792C02F
:1016D0008FF0070E00018F17D8B408D0E9D70001AA
:1016E000D8908E338D338C330001932B00019351AE
:1016F00000019419D8A4F3D7000192AF12D0FF0EC5
:101700000001891BFF0E00018A1BFF0E00018B1BCD
:10171000010E00018927000E00018A23000E00013E
:101720008B23000192AD12D0FF0E00018C1BFF0E27
:1017300000018D1BFF0E00018E1B010E00018C2786
:10174000000E00018D23000E00018E23000E00010B
:10175000926F0001895100018C2700018A5100011C
:101760008D2300018B5100018E2300018EAF15D017
:10177000FF0E00018C1BFF0E00018D1BFF0E0001F0
:101780008E1B010E00018C27000E00018D23000E20
:1017900000018E23010E0001926F8CC060F08DC09D
:1017A00061F08EC062F094C063F092C064F0A3EC6C
:1017B00011F060C089F061C08AF062C08BF0120045
:1017C000560EAD6EACA2FED7630EAD6EACA2FED7C8
:1017D000630EAD6EACA2FED73D0EAD6EACA2FED7D1
:1017E000300EAD6EACA2FED7300EAD6EACA2FED701
:1017F0002E0EAD6EACA2FED7300EAD6EACA2FED7F3
:10180000300EAD6EACA2FED7760EAD6EACA2FED79A
:10181000200EAD6EACA2FED7570EAD6EACA2FED7B9
:10182000690EAD6EACA2FED76E0EAD6EACA2FED749
:10183000640EAD6EACA2FED7200EAD6EACA2FED78C
:10184000760EAD6EACA2FED7650EAD6EACA2FED725
:101850006C0EAD6EACA2FED73D0EAD6EACA2FED747
:1018600037C0ADFFACA2FED738C0ADFFACA2FED7EB
:101870006D0EAD6EACA2FED72F0EAD6EACA2FED734
:10188000730EAD6E200EAD6EACA2FED7570EAD6ED0
:10189000ACA2FED7690EAD6EACA2FED76E0EAD6ED9
:1018A000ACA2FED7640EAD6EACA2FED7200EAD6E1C
:1018B000ACA2FED7640EAD6EACA2FED7690EAD6EC3
:1018C000ACA2FED7720EAD6EACA2FED73D0EAD6ED1
:1018D0003FC0ADFFACA2FED740C0ADFFACA2FED76B
:1018E000200EAD6EACA2FED7540EAD6EACA2FED7EC
:1018F000650EAD6EACA2FED76D0EAD6EACA2FED77E
:10190000700EAD6EACA2FED73D0EAD6EACA2FED792
:101910002EC0ADFFACA2FED730C0ADFFACA2FED74B
:101920002FC0ADFFACA2FED7640EAD6EACA2FED749
:10193000650EAD6EACA2FED7670EAD6EACA2FED743
:10194000430EAD6EACA2FED7200EAD6EACA2FED79C
:10195000480EAD6EACA2FED7750EAD6EACA2FED732
:101960006D0EAD6EACA2FED7690EAD6EACA2FED709
:10197000640EAD6EACA2FED7690EAD6EACA2FED702
:10198000740EAD6EACA2FED7790EAD6EACA2FED7D2
:101990003D0EAD6EACA2FED72AC0ADFFACA2FED705
:1019A0002CC0ADFFACA2FED72BC0ADFFACA2FED7C2
:1019B000250EAD6EACA2FED70A0EAD6EACA2FED760
:1019C0000D0EAD6EACB21200FDD7000E0101E36F3B
:1019D0005FEC0EF0A6EC0DF03AEC18F029EC18F0E4
:1019E00004EC17F00C0E0CEC16F0B30E0101D36FE3
:1019F000010E0101D46F2A0E0101D56F030E010102
:101A0000D66F9DEC17F0B30E0101E06F010E0101DE
:101A1000E16F2DEC15F0000E0101B06F000EAF6FFD
:101A2000E90E0101AF5D030E0101B059D8B06ED0CF
:101A3000CA949E92000ECC6ECA849EA2FED7FA0E65
:101A40000101AF190101B011D8A419D0010E0CEC9D
:101A500016F0B30E0101D36F010E0101D46F1F0EFA
:101A60000101D56F030E0101D66F9DEC17F0B30E87
:101A70000101E06F010E0101E16F2DEC15F0F40E94
:101A80000101AF191DE10101B005D8A419D0010E63
:101A90000CEC16F0B30E0101D36F010E0101D46FEF
:101AA000120E0101D56F030E0101D66F9DEC17F0E8
:101AB000B30E0101E06F010E0101E16F2DEC15F095
:101AC000EE0E0101AF191EE1020E0101B019D8A4FA
:101AD00019D0010E0CEC16F0B30E0101D36F010EFC
:101AE0000101D46F010E0101D56F030E0101D66F04
:101AF0009DEC17F0B30E0101E06F010E0101E16FE3
:101B00002DEC15F00101AF4BB02B8AD7010E0CEC78
:101B100016F0B30E0101D36F010E0101D46F330E25
:101B20000101D56F030E0101D66F9DEC17F0B30EC6
:101B30000101E06F010E0101E16F2DEC15F08294BF
:101B4000C68AC280D58ECD800400FED7B30E0101B7
:101B5000B16F010E0101B26F000E0101DA6F140EB8
:101B6000D96FDFEC16F081988196000E0101DC6FD1
:101B7000010EDB6F65EC16F0300E836E8282000E74
:101B80000101DC6F010EDB6F65EC16F08292000E36
:101B90000101DA6F0A0ED96FDFEC16F08198819699
:101BA000000E0101DC6F010EDB6F65EC16F0300EEC
:101BB000836E8282000E0101DC6F010EDB6F65EC2B
:101BC00016F08292000E0101DC6F640EDB6F65EC93
:101BD00016F081988196000E0101DC6F010EDB6F1B
:101BE00065EC16F0300E836E8282000E0101DC6F10
:101BF000010EDB6F65EC16F08292000E0101DA6FC8
:101C00000A0ED96FDFEC16F0380E836E8282000E5A
:101C10000101DC6F010EDB6F65EC16F08292000EA5
:101C20000101DC6F280EDB6F65EC16F0080E836E89
:101C30008282000E0101DC6F010EDB6F65EC16F095
:101C40008292000E0101DC6F280EDB6F65EC16F04E
:101C5000010E836E8282000E0101DC6F010EDB6FCC
:101C600065EC16F08292000E0101DA6F0A0ED96F50
:101C7000DFEC16F0060E836E8282000E0101DC6F2F
:101C8000010EDB6F65EC16F08292000E0101DC6F35
:101C9000280EDB6F65EC16F00E0E836E8282000E4E
:101CA0000101DC6F010EDB6F65EC16F08292000E15
:101CB0000101DC6F280EDB6F65EC16F01200000EE0
:101CC0003D6E000E3C6E000E3B6E000E3A6E000E36
:101CD0000001EB6F000E0001EC6F000E0001ED6FD4
:101CE000000E0001E86F000E0001E96F000E000118
:101CF000EA6F000E0001D86F000ED76F000E0001D2
:101D0000E56F000E0001E66F000E0001E76F000EA8
:101D10000001E26F000EE16F000E0001DE6F000EA9
:101D20000001E06F000EDF6F000E0101D36F180E8F
:101D30000101D36501D02CD00101D351030D000E58
:101D4000F324D96E010EF420DA6E000EDE6E000E62
:101D5000DE6E000EDE6E0101D351020D4B0EF32438
:101D6000D96E010EF420DA6E000EDE6E000EDD6E0E
:101D70000101D351020D7D0EF324D96E010EF42022
:101D8000DA6E000EDE6E000EDD6E0101D32BCFD7B2
:101D900096909682968484808D809490949A829076
:101DA000829A94948284949282929380938293965E
:101DB000939881968198000E956E000E836E9282A4
:101DC000C29AC298C296C284C292C290C19AC19865
:101DD000C186C184C192C180C09EC09AC098C0967D
:101DE000C084C082C090030ED56E0B0ED76EDC0E81
:101DF000D66EC20ED76EF70ED66EB40ECD6E0B0E2B
:101E0000CF6EDC0ECE6ECA9CCA9ACA98CA96CA9485
:101E1000CA82CA90000ECC6EFA0ECB6EB190B19E03
:101E2000B19AB198B19212006DC071F00001726B5D
:101E3000736B00016C350001713701E372810001A1
:101E400071510001746F00017451D8A40AD0000EC2
:101E500000016B6F000E00016C6F000E00016D6FD2
:101E6000120070C071F00001726B736B00016F356E
:101E70000001713701E37281000171510001796F36
:101E800000017951D8A40AD0000E00016B6F000E3A
:101E900000016C6F000E00016D6F1200000179519E
:101EA0007B0F000174276DC079F0000170510001B3
:101EB000791B800E0001791700016C8F00016F8F74
:101EC000FF0E00016E17FF0E00016F17000E0001DC
:101ED0007017000E0001756F000E0001766F000E86
:101EE0000001776F070E0001786F00016BA10CD025
:101EF00000016E510001752700016F51000176232A
:101F000000017051000177230001D8906D336C33CC
:101F10006B330001D8906E376F3770370001782F20
:101F2000E4D7090E0001786F00016BA10CD000010D
:101F30006E510001752700016F51000176230001E9
:101F40007051000177230001D8906D336C336B33EF
:101F50000001D8907733763375330001782FE4D7BA
:101F600075C060F076C061F077C062F074C063F055
:101F700079C064F0A3EC11F060C06BF061C06CF04C
:101F800062C06DF012007CC080F00001816B826B3A
:101F900000017B350001803701E381810001805120
:101FA0000001876F00018751D8A40AD0000E0001FC
:101FB0007A6F000E00017B6F000E00017C6F120033
:101FC0007FC080F00001816B826B00017E350001D3
:101FD000803701E38181000180510001886F000199
:101FE0008851D8A40AD0000E00017A6F000E0001BB
:101FF0007B6F000E00017C6F1200000E0001846FE9
:10200000000E0001856F000E0001866F00018851EF
:10201000890F0001875F7CC088F000017F510001BB
:10202000881B800E0001881700017B8FFF0E0001C6
:102030007A17FF0E00017B17000E00017C170001CC
:102040007E8FFF0E00017D17FF0E00017E17000E30
:1020500000017F17180E0001836F0001D8908437AC
:102060008537863700017D5100017A5D00017E5180
:1020700000017B5900017F5100017C59D8A00ED08E
:1020800000017D5100017A5F00017E5100017B5B00
:1020900000017F5100017C5B000184810001D89028
:1020A0007A377B377C370001832FD7D784C060F025
:1020B00085C061F086C062F087C063F088C064F0BC
:1020C000A3EC11F060C07AF061C07BF062C07CF0DC
:1020D000120097C099F000019A6B9B6B0001963536
:1020E0000001993701E39A81000199510001A36F22
:1020F0000001A351D8A40AD0000E0001956F000E74
:10210000966F000E976F000E986F1200170E000169
:10211000996F95C09AF096C09BF097C09CF0000113
:10212000992900019D6F05D00001D8909C339B3305
:102130009A3300019D2FF8D700019A5100019E6F3C
:102140000001968FFF0E00019517FF0E00019617F4
:10215000000E000197170001955100019F6F0001CB
:1021600096510001A06F000197510001A16F00017D
:10217000A26B8E0E0001A35F0001A3AF1AD0000175
:10218000A351800A8F0FD8B00AD0000E0001956FBE
:10219000000E966F000E976F000E986F12000001F0
:1021A000D890A233A133A0339F330001A33FF7D7C8
:1021B0001BD0170E0001A36512D0000E0001956F11
:1021C000000E966F000E976F000E986F12000001C0
:1021D000D8909F37A037A137A2370001A30700018D
:1021E000A3510001D8A4F3D700019E510001D8B437
:1021F00009D00001A21FA11FA01F9F6D000EA023E8
:10220000A123A2239FC095F0A0C096F0A1C097F093
:10221000A2C098F012000001626FC5969E96C5801C
:10222000CA949E92000ECC6ECA8405D09EA203D0A2
:10223000C584000E12009EA6F9D79E96800EC96E28
:10224000CA949E92000ECC6ECA8405D09EA203D082
:10225000C584000E12009EA6F9D79E96C5BC6FD00D
:10226000C58C62C0C9FFCA949E92000ECC6ECA840F
:1022700005D09EA203D0C584000E12009EA6F9D7F9
:102280009E96C5BC5AD0C58CC582CA949E92000E3B
:10229000CC6ECA8405D09EA203D0C584000E120065
:1022A0009EA6F9D79E96810EC96ECA949E92000E84
:1022B000CC6ECA8405D09EA203D0C584000E120045
:1022C0009EA6F9D79E96C5BC36D0C58CC7B4FED79E
:1022D000C5869E92000ECC6ECA8405D09EA203D005
:1022E000C584000E12009EA6F9D79E9660C0D9FF45
:1022F00061C0DAFFC9CFDFFFC58AC588CA949E9244
:10230000000ECC6ECA8405D09EA203D0C584000EF8
:1023100012009EA6F9D79E96C5849E92000ECC6EA2
:10232000CA8405D09EA203D0C584000E12009EA6CA
:10233000F9D79E9606D0000E1200000E1200000E75
:102340001200010E1200000163510001D8B408D040
:10235000000160510001611100016211D8A411D087
:10236000000E0001606F000E0001616F000E0001A1
:10237000626F12000001632B0001D8906233613359
:102380006033000E000160150001656F000E000152
:1023900061150001666FFE0E000162150001676F96
:1023A000000165510001661100016711D8B411D018
:1023B000E1D70001632B010E00016027000E000130
:1023C0006123000E000162230001D8906233613363
:1023D0006033000E000160150001656F000E000102
:1023E00061150001666FFF0E000162150001676F45
:1023F000000165510001661100016711D8B408D0D1
:10240000D8D7000163070001D89060376137623781
:10241000000161BF04D0020E00016361F2D7000128
:1024200063B102D00001619F0001D89063330001C5
:10243000635100016213000164510001D8B402D05D
:102440000001628F60C060F061C061F062C062F044
:102450001200110E0001606F030E14EC13F000095E
:10246000D8A402D0010E1200010E396E0ED0390E22
:102470000001606F000E0001616F000E0BEC11F0A7
:102480000009D8A402D0020E12003950D8A4EFD708
:102490003C0E0001606F000E0001616F010E0BEC3D
:1024A00011F00009D8A402D0030E12003D0E000165
:1024B000606F000E0001616F020E0BEC11F000095D
:1024C000D8A402D0040E1200829A010E0001606F9F
:1024D000030E14EC13F00009D8A403D0828A050E71
:1024E0001200010E396E0ED0390E0001606F000E21
:1024F0000001616F000E0BEC11F00009D8A402D0AE
:10250000060E12003950D8A4EFD73A0E0001606FC2
:10251000000E0001616F010E0BEC11F00009D8A450
:1025200002D0070E12003B0E0001606F000E00018A
:10253000616F020E0BEC11F00009D8A402D0080E56
:102540001200000E1200010EB7EC16F0B30E016E71
:10255000010E026E3B0E036E030E046ED1EC17F0FB
:10256000B30E0E6E010E0F6EA8EC15F03750B7ECDF
:1025700017F03850B7EC17F0B30E016E010E026E73
:10258000420E036E030E046ED1EC17F0B30E0E6E06
:10259000010E0F6EA8EC15F03F50B7EC17F040504D
:1025A000B7EC17F0C00EB7EC16F0B30E016E010ECB
:1025B000026E4B0E036E030E046ED1EC17F0B30ED9
:1025C0000E6E010E0F6EA8EC15F02E50B7EC17F042
:1025D0003050B7EC17F02F50B7EC17F0DF0EB7EC18
:1025E00017F0430EB7EC17F0200EB7EC17F0B30E50
:1025F000016E010E026E470E036E030E046ED1ECE7
:1026000017F0B30E0E6E010E0F6EA8EC15F02A50E7
:10261000B7EC17F02C50B7EC17F02B50B7EC17F0C5
:10262000250EB7EC17F012000001616FC5929E965F
:10263000C580CA949E92000ECC6ECA8405D09EA21C
:1026400003D0C584000E12009EA6F9D79E96800E78
:10265000C96ECA949E92000ECC6ECA8405D09EA20A
:1026600003D0C584000E12009EA6F9D79E96C5BC65
:102670003BD0C58C61C0C9FFCA949E92000ECC6E3F
:10268000CA8405D09EA203D0C584000E12009EA667
:10269000F9D79E96C5BC26D0C58C60C0C9FFCA9428
:1026A0009E92000ECC6ECA8405D09EA203D0C58433
:1026B000000E12009EA6F9D79E96C5BC11D0C58CFF
:1026C000C584CA949E92000ECC6ECA8405D09EA288
:1026D00003D0C584000E12009EA6F9D79E9606D0A0
:1026E000000E1200000E1200000E1200010E120069
:1026F000000162AF1DD060C066F061C067F062C0CB
:1027000068F00001661F671F681F662B000E6723B5
:102710006823000E000166250001606F000E0001B5
:1027200067210001616F800E000168210001626F66
:10273000000165AF1DD063C066F064C067F065C07E
:1027400068F00001661F671F681F662B000E672375
:102750006823000E000166250001636F000E000172
:1027600067210001646F800E000168210001656F20
:10277000000E0001601B000E0001611B800E0001B5
:10278000621B000E0001631B000E0001641B800E23
:102790000001651B000163510001605D000164518F
:1027A000000161590001655100016259D8B002D0A1
:1027B000D8901200D8801200000E0101D86F0101DC
:1027C000D6AF08D00101D56DD61FD8B0D62B010EDB
:1027D0000101D86F0101D4AF08D00101D36DD41F1E
:1027E000D8B0D42B010E0101D81B000E0101DA6F05
:1027F000000ED96F0101D5510101D611D8B42CD0EA
:10280000010E0101D76F06D00101D890D537D63718
:102810000101D72B0101D6AFF7D70101D890D937E5
:10282000DA370101D5510101D35D0101D651010112
:10283000D459D8A00AD00101D5510101D35F0101BB
:10284000D6510101D45B0101D9810101D890D63361
:10285000D5330101D72FE1D70101D8510101D8B4F7
:1028600005D00101D96DDA1FD8B0DA2BD9C1D3F167
:10287000DAC1D4F11200000E0001A96F0001A7AF68
:1028800008D00001A66DA71FD8B0A72B010E00012C
:10289000A96F0001A5AF08D00001A46DA51FD8B095
:1028A000A52B010E0001A91B000E0001AB6F000E4D
:1028B000AA6F0001A6510001A711D8B42CD0010EB7
:1028C0000001A86F06D00001D890A637A7370001F5
:1028D000A82B0001A7AFF7D70001D890AA37AB37D4
:1028E0000001A6510001A45D0001A7510001A559F6
:1028F000D8A00AD00001A6510001A45F0001A75191
:102900000001A55B0001AA810001D890A733A6337E
:102910000001A82FE1D70001A9510001D8B405D0CA
:102920000001AA6DAB1FD8B0AB2BAAC0A4F0ABC0FE
:10293000A5F01200000E0001B16F0001ADAF08D08C
:102940000001AC6DAD1FD8B0AD2B010E0001B16F11
:102950000001AFAF05D00001AE6DAF1FD8B0AF2BF7
:102960000001AE510001AF11D8B426D0010E000114
:10297000B06F06D00001D890AE37AF370001B02B52
:102980000001AFAFF7D70001AE510001AC5D00010F
:10299000AF510001AD59D8A008D00001AE510001DF
:1029A000AC5F0001AF510001AD5B0001D890AF33C7
:1029B000AE330001B02FE7D70001B1510001D8B408
:1029C00005D00001AC6DAD1FD8B0AD2BACC0ACF0E4
:1029D000ADC0ADF01200000E066E04AE06D0036C62
:1029E000041ED8B0042A010E066E02AE06D0016C99
:1029F000021ED8B0022A010E061A000E086E000E42
:102A0000076E03500410D8B41CD0010E056E04D01C
:102A1000D89003360436052A04AEFAD7D890073684
:102A200008360350015C04500258D8A005D003506A
:102A3000015E0450025A0780D89004320332052EFA
:102A4000EDD70650D8B404D0076C081ED8B0082AB9
:102A500007C001F008C002F01200000E0101E26F91
:102A60001F0E0101E26501D012000101E251010DCA
:102A7000F3500101E025D96EF4500101E121DA6E35
:102A8000DF50D8B4120081988186000E0101DC6FFE
:102A9000640EDB6F65EC16F00101E251010DF3509D
:102AA0000101E025D96EF4500101E121DA6EDF5019
:102AB000836E8282000E0101DC6F640EDB6F65ECB9
:102AC00016F08292000E0101DC6F280EDB6F65ECC0
:102AD00016F00101E22BC4D7000E0001666F000E54
:102AE000656F0001625100016311D8B42CD0010E52
:102AF0000001646F06D00001D8906237633700018F
:102B0000642B000163AFF7D70001D89065376637B3
:102B1000000162510001605D0001635100016159D3
:102B2000D8A00AD0000162510001605F000163512A
:102B30000001615B000165810001D890633362335D
:102B40000001642FE1D765C060F066C061F012003B
:102B5000000E106E1F0E106401D012001050010DF7
:102B6000F3500E24D96EF4500F20DA6EDF50D8B433
:102B7000120081988186000E0A6E640E096E46EC82
:102B800017F01050010DF3500E24D96EF4500F20A1
:102B9000DA6EDF50836E8282000E0A6E640E096E5A
:102BA00046EC17F08292000E0A6E280E096E46EC73
:102BB00017F0102ACFD70001695100016A11D8B46B
:102BC00026D0010E00016B6F06D00001D890693746
:102BD0006A3700016B2B00016AAFF7D7000169511A
:102BE0000001675D00016A5100016859D8A008D052
:102BF000000169510001675F00016A510001685BD3
:102C00000001D8906A33693300016B2FE7D767C0A2
:102C100067F068C068F012000101E06F819881964A
:102C2000000E0101DC6F640EDB6F65EC16F0E0C195
:102C300083FF8282000E0101DC6F640EDB6F65ECA6
:102C400016F082920101E005D8B405D0030E01010F
:102C5000E019D8A408D0000E0101DA6F050ED96F73
:102C6000DFEC16F01200000E0101DC6F280EDB6FA6
:102C700065EC16F0120001EE00F0D30EEE6AE806E5
:102C8000FDE100EEC8F01D0EEE6AE806FDE100EE83
:102C900022F01C0EEE6AE806FDE18A0EF66E300E9A
:102CA000F76E000EF86E0900F5CF3EF00900F5CF83
:102CB0003FF00900F5CF40F041904192000EF86ED0
:102CC000030EF76E0001E5EF0CF0DBC1D3F1DCC1C0
:102CD000D4F1000E0101D66F0A0ED56FDCEC13F0B3
:102CE000D3C1DBF1D4C1DCF1000E0101DF6F000EB6
:102CF000DE6F03D00101DE4BDF2B0101DB5101014F
:102D0000DE5D0101DF51800A0101DD6F0101DC514F
:102D1000800A0101DD59D8B01200ECD7000E066E12
:102D2000000E056E03500410D8B41CD0010E076EBF
:102D300004D0D89003360436072A04AEFAD7D890C8
:102D4000053606360350015C04500258D8A005D061
:102D50000350015E0450025A0580D89004320332B9
:102D6000072EEDD705C001F006C002F012000E6E6E
:102D700081988196000E0A6E640E096E46EC17F07B
:102D80000EC083FF8282000E0A6E640E096E46EC4E
:102D900017F082920E04D8B404D0030E0E18D8A4F3
:102DA00007D0000E086E050E076E66EC17F01200D5
:102DB000000E0A6E280E096E46EC17F01200000E87
:102DC0000101DD6F000EDC6F03D00101DC4BDD2B58
:102DD000D9C1D3F1DAC1D4F1000E0101D66F280EAA
:102DE000D56F82EC17F00101D3510101DC5D0101C7
:102DF000DD51800A0101DB6F0101D451800A01011C
:102E0000DB59D8B01200E1D7F28EF28CF28AF28848
:102E1000F296F294F292F290F19EF19CF19AF1986E
:102E2000F184F190F09EF08CF098F086F092F090A2
:102E3000000E9E6E010E9D6E000EA36E000E9F6E24
:102E4000000EA56E800ED06E12000A500B10D8B482
:102E500018D0010E0C6E04D0D8900A360B360C2A0E
:102E60000BAEFAD70A50085C0B500958D8A004D012
:102E70000A50085E0B50095AD8900B320A320C2EB9
:102E8000F1D708C008F009C009F0120009C001F02C
:102E90000AC002F0000E046E0A0E036EEBEC14F092
:102EA00001C009F002C00AF0000E0D6E000E0C6E9B
:102EB00002D00C4A0D2A09500C5C0D50800A0B6E92
:102EC0000A50800A0B58D8B01200F3D7000E0B6ED0
:102ED000000E0A6E02D00A4A0B2A07C001F008C091
:102EE00002F0000E046E280E036E16EC18F001506E
:102EF0000A5C0B50800A096E0250800A0958D8B04B
:102F00001200E9D70101D3510101D503F3CFD7F165
:102F1000F4CFD8F10101D3510101D603F3500101DF
:102F2000D8270101D4510101D503F3500101D8275D
:102F3000D7C1D3F1D8C1D4F11200D3C1D7F1D4C1D4
:102F4000D8F106D00101D74BD82B0101D54BD62B98
:102F5000D5C1F6FFD6C1F7FFD7C1D9FFD8C1DAFF77
:102F60000800F5CFDFFFDF50D8B41200EBD70E6EAC
:102F700081988186000E0A6E640E096E46EC17F089
:102F80000EC083FF8282000E0A6E640E096E46EC4C
:102F900017F08292000E0A6E280E096E46EC17F0AA
:102FA000120001C005F002C006F004D0054A062A4E
:102FB000034A042A03C0F6FF04C0F7FF05C0D9FF87
:102FC00006C0DAFF0800F5CFDFFFDF50D8B41200EB
:102FD000EDD7000160510001611100016211D8B408
:102FE00009D0000E0001601B000E0001611B800E65
:102FF0000001621B60C060F061C061F062C062F0FD
:10300000120068C060F069C061F00001626B8E0E52
:103010000001636F000E0001646FA3EC11F060C04B
:1030200068F061C069F062C06AF0120001500302EA
:10303000F3CF05F0F4CF06F001500402F35006265A
:1030400002500302F350062605C001F006C002F04C
:10305000120094869488C78EC79CC69AC686C6946A
:10306000C692C690C598C596C594C592C590060EE1
:10307000C86E1200948E949CA40EAC6E900EAB6E33
:0E308000000EB86E1F0EAF6E12000120200071
:020000040020DA
:08000000FFFFFFFFFFFFFFFF00
:020000040030CA
:0E000000FF021519FF8081FF0FC00FE00F40B7
:00000001FF
